:100000000C949F020C945E1E0C94371E0C94101ED0
:100010000C94E91D0C94C7020C94C7020C94C21DE9
:100020000C94C7020C94C7020C9485180C94F91810
:100030000C94C7020C94C7020C94C7020C94C7021C
:100040000C94C7020C94C7020C94C7020C94C7020C
:100050000C94C7020C94C7020C94C7020C94781D30
:100060000C94C7020C9457160C9431160C94C702CA
:100070000C94C7020C94C7020C94C7020C94C702DC
:100080000C94C7020C94C7020C94C7020C94C702CC
:100090000C94C7020C94C7020C94C7020C94C702BC
:1000A0000C94C7020C94C7020C94C7024703B50313
:1000B000050460044F094F094F0963047205CB051D
:1000C0004F094F094F094F094F093D064F094F0985
:1000D0004F094F094F09AC07811B841B731B771B0A
:1000E0007D1BA51BA51BA51B881B8C1B901B961B92
:1000F0009A1BA51BA01B4E6F204572726F72730076
:100100005265636569766520427566666572203161
:10011000204F766572666C6F772C200052656365A0
:10012000697665204275666665722030204F766577
:1001300072666C6F772C2000427573204F666620C4
:100140002D205445432065786365656465642032DD
:1001500035352C20005472616E736D6974204572C0
:10016000726F72205761726E696E67202D20544540
:1001700043203E3D203132382C20005265636569B2
:100180007665204572726F72205761726E696E6774
:10019000202D20524543203E3D203132382C200076
:1001A0005472616E736D6974204572726F7220575C
:1001B00061726E696E67202D20544558203E3D20A7
:1001C00039362C2000526563656976652045727268
:1001D0006F72205761726E696E67202D2052454301
:1001E000203E3D2039362C200052656365697665D6
:1001F000204572726F72205761726E696E67202D92
:1002000020544543206F7220524543203E3D203903
:10021000362C2000227D00222C20226E657874541A
:1002200078427566666572223A2200222C20226589
:1002300072726F7254657874223A2200222C202246
:100240006572726F72223A2200222C20227374612E
:10025000747573223A2200222C202263616E63742B
:10026000726C223A22007B226576656E74223A22F5
:10027000627573646267222C20226E616D65223A7A
:100280002200227D00554E4B4E4F574E004C4F4F93
:10029000504241434B004C495354454E00534C454A
:1002A0004550004E4F524D414C00434F4E4649473A
:1002B00055524154494F4E00222C20226D6F6465E7
:1002C000223A22007B226576656E74223A226361AF
:1002D0006E2D6D6F64652D627573007D00222C207C
:1002E0002272617465223A007B226576656E742203
:1002F0003A22626974726174652D627573007D00C3
:100300007B226576656E74223A226175746F626134
:100310007564436F6D706C657465222C2022726168
:100320007465223A007D007B226576656E74223A00
:10033000226175746F6261756454657374222C2038
:100340002272617465223A00227D007B2265766507
:100350006E74223A22656570726F6D446174612219
:100360002C2022726573756C74223A226661696C66
:10037000757265222C20226368756E6B223A22000A
:100380007B226576656E74223A22656570726F6DA8
:1003900053617665222C2022726573756C74223A43
:1003A0002273756363657373227D00227D007B2257
:1003B0006576656E74223A22656570726F6D446170
:1003C0007461222C2022726573756C74223A227338
:1003D000756363657373222C20226368756E6B22CC
:1003E0003A2200227D007B226576656E74223A22D5
:1003F000656570726F6D222C202264617461223AEF
:100400002200227D007B226576656E74223A226589
:100410006570726F6D5265736574222C202272654F
:1004200073756C74223A2273756363657373227DEE
:100430000000000000240027002A002D00300004E6
:1004400008020110408040102040804080080204D3
:10045000018040201002011080102040400404045C
:10046000040403040502020202040302020202065B
:100470000606060606040402020204080B00020235
:10048000020100090400000102020000052400101E
:1004900001052401010104240206052406000107C8
:1004A00005810310004009040100020A0000000752
:1004B000050202400000070583024000001201000F
:1004C00002EF0201404123368000010102030104D2
:1004D000030904120100020000004041233680009D
:1004E000010102030141726475696E6F204C4C4337
:1004F0000043414E42757320547269706C65000070
:10050000000000250028002B002E00310000000014
:10051000002300260029002C002F0000000002000C
:10052000090F0000030401000C000000000000009F
:10053000000000000000000000009324122111249C
:100540001FBECFEFDAE0DEBFCDBF13E0A0E0B1E029
:10055000E2E8F5E502C005900D92A230B107D9F7A7
:1005600028E0A2E0B3E001C01D92A236B207E1F795
:1005700012E0CEE9D2E004C02197FE010E94BF291B
:10058000CD39D107C9F70E941E210C94B42A0C94CE
:1005900000002F923F924F925F926F927F928F92C4
:1005A0009F92AF92BF92CF92DF92EF92FF920F9302
:1005B0001F93CF93DF93CDB7DEB7E7970FB6F894CD
:1005C000DEBF0FBECDBF3C012DB73EB73FAB2EAB5C
:1005D000633009F4E1C4E8F5613009F441C06230E8
:1005E00009F00DC64CE050E0BE016D5D7F4F0E94EA
:1005F00085208BA190E0582F9F878E878CA190E05B
:10060000982F88272DA1820F911D982E9B838A8376
:10061000BEA0BC82CFA0CD82D8A4DE82E9A4EF82A6
:10062000FAA4F8860BA509871CA51A872DA52B8788
:100630008EA4898281E0888BAB803C854D856F8557
:1006400071E0D30114968D919C9115970E94700FC3
:1006500026C6643009F48AC5683009F4A3C5CFC53D
:1006600041E050E0BE016B5C7F4F0E948520019706
:1006700009F015C6EDA98E2F90E0FC013197E63107
:10068000F10508F00CC6EA5AFF4F0C94BF296DE73C
:1006900071E0CE018F960E941B1863E871E0CE01D5
:1006A00083960E941B1867E971E08E010F5F1F4F50
:1006B000C8010E941B184FA158A56BA17CA1C801BD
:1006C0000E949317811103C0C8010E94C11764EBF7
:1006D00071E0C8010E94D31768EB71E00E94D31744
:1006E0007C014BA95CA96FA578A90E949317811181
:1006F00003C0C7010E94C11764EB71E0C7010E94EB
:10070000D31764EC71E00E94D317F301A281B38187
:10071000FC014481558160817181ED91FC911197BB
:100720000280F381E02DCD010995C8010E941618C1
:10073000CE0183960E941618CE018F960E9416183D
:1007400080915E0890915F08009711F482E698E02E
:10075000B801681B790BD30112968D919C91139768
:100760000E944B2062E074E091C066EE73E0D3011A
:1007700012968D919C9113970E94FB1500E010E05A
:10078000C8010E941D28F82EBFE0B81738F06FECA2
:1007900071E0F301828193810E9458114F2D50E046
:1007A00060E070E020E1D30112968D919C91139747
:1007B0000E94A115F301828193818B549340A9F487
:1007C000D30118968D919C911997019619969C9337
:1007D0008E93189708974CF064E170E080E090E009
:1007E0000E94C31CF301118610860F5F1F4F011575
:1007F000F2E01F0729F663EE73E0D30112968D91A4
:100800009C9113970E941F164AC542E250E0BE0118
:100810006F5F7F4FC3010E9485208297D9F58AA11F
:10082000813AC1F5A981E0E2AE9FD0011124A8511F
:10083000BC4F80E2FE01329601900D928A95E1F75D
:100840006EEA73E0D30112968D919C9113970E94EA
:10085000FB15498150E060E070E02AE0F3018281FD
:1008600093810E94A1156BEA73E0D30112968D91DA
:100870009C9113970E941F1689818F3009F00FC534
:1008800088EE93E00E94720A60E873E0F3018281CF
:100890009381B8CF6BE473E0D30112968D919C9154
:1008A00013970E94FB15498150E060E070E02AE058
:1008B000F301828193810E94A11568E473E09DCFCA
:1008C0000E94910AECC441E050E0BE016B5C7F4F96
:1008D000C3010E9485208DA88FEF880D833008F01A
:1008E000DEC4F30102811381912CF1E08F1A91088B
:1008F0008CE0889DB001899D700D11249B01265CC0
:10090000374F7901D9018D919C9111979CA38BA3AD
:1009100012968D919C9113979EA38DA318A61FA24A
:100920001AA619A61CA61BA6625C774FCE01879655
:100930000E94EC17F701828593859EA78DA76FE033
:1009400070E0CE0183960E94C41F282E6BE270E0F7
:10095000CE0183960E94C41F382E82E1ECE1F1E0C3
:10096000DE01119601900D928A95E1F79E012F5FAD
:100970003F4F79012E0133E1430E511CC12CD12C84
:1009800067E273E0C8010E94FB15D701AD90BD90EE
:100990007D01B501C8010E944B2065E273E0C801EA
:1009A0000E941F1660E070E0CE0183960E942E2008
:1009B00065E070E080E090E00E94C31CB501CE01CC
:1009C00083960E94F51E65E070E080E090E00E9452
:1009D000C31C63E070E0CE0183960E942E2065E088
:1009E00070E080E090E00E94C31C2FEF40E06CE2DA
:1009F000CE0183960E940C2065E070E080E090E0DC
:100A00000E94C31C68EC70E080E090E00E94C31C70
:100A10006CE270E0CE0183960E94C41F87FD02C085
:100A2000811165014E145F0409F0AACF60E070E007
:100A3000CE0183960E942E206AE070E080E090E074
:100A40000E94C31CB601CE0183960E94F51E61E090
:100A500070E080E090E00E94C31C2FEF422D6FE019
:100A6000CE0183960E940C2061E070E080E090E06F
:100A70000E94C31C2FEF432D6BE2CE0183960E9490
:100A80000C2061E070E080E090E00E94C31CC40193
:100A9000880F991F880F991FFC01E851FC4F4F01E7
:100AA00065817681CE0183960E942E2060E073E0FE
:100AB000C8010E94FB15B601C8010E944B206EEFD1
:100AC00072E0C8010E941F161C141D040CF03FC2E6
:100AD000D4011496DC92CE92139788EE93E00E9494
:100AE000720A35C243E050E0BE016F5F7F4FC30121
:100AF0000E9485208330D9F48A8190E0982F88273E
:100B00002B81820F911DE9812FEF2E0F233078F476
:100B10001816190664F4B4E0EB9FF0011124EC51AF
:100B2000FC4F9483838388EE93E00E94720A68EE00
:100B300072E0F301828193810E94FB15498150E0AC
:100B400060E070E02AE0D30112968D919C9113979A
:100B50000E94A1156DED72E0F301828193810E94E4
:100B6000FB15E9818FEF8E0F833048F424E0E29F7C
:100B7000F0011124EC51FC4F6381748102C060E0EC
:100B800070E0D30112968D919C9113970E944B2097
:100B90006BED72E07BCE42E050E0BE016F5F7F4FB5
:100BA000C3010E948520823099F4E9818FEF8E0F76
:100BB000833070F424E0E29FF0011124EC51FC4FEB
:100BC0008A8190E09683858388EE93E00E94720A82
:100BD000E9818FEF8E0F833048F434E0E39FF0011A
:100BE0001124EC51FC4F0581168102C005E010E094
:100BF00064EC72E0D30112968D919C9113970E9440
:100C0000FB15498150E060E070E02AE0F301828149
:100C100093810E94A11568EB72E0D30112968D9129
:100C20009C9113970E94FB15F301828193810230FE
:100C30001105B1F048F40115110579F001301105E5
:100C4000A9F463EA72E014C00330110561F00430C6
:100C5000110561F46DE872E00BC06AEA72E008C049
:100C60006DE972E005C066E972E002C065E872E015
:100C70000E94FB1562E872E0C0CD41E050E0BE0189
:100C8000615D7F4FC3010E9485208FA59FEF980F64
:100C9000933008F004C390E001972CE0289FB00146
:100CA000299F700D11248B01065C174FF80180817C
:100CB00091819CA38BA3828193819EA38DA318A66F
:100CC0001FA21AA619A61CA61BA6625C774FCE010E
:100CD00087960E94EC17D8011A968D919C911B97CC
:100CE0009EA78DA766E672E0F301828193810E9440
:100CF000FB15D30112968D919C9113974BA55CA582
:100D00006FA178A5DC01ED91FC910280F381E02DCB
:100D1000099567E572E0F301828193810E94FB15DA
:100D20006FE070E0CE0183960E94C41F482F50E010
:100D300060E070E020E1D30112968D919C911397B1
:100D40000E94A11569E472E0F301828193810E94FF
:100D5000FB15CE0183960E94E01F482F50E060E013
:100D600070E020E1D30112968D919C9113970E941F
:100D7000A1156CE372E0F301828193810E94FB155F
:100D80006DE270E0CE0183960E94C41F482F50E0B0
:100D900060E070E020E1D30112968D919C91139751
:100DA0000E94A115F30182819381885E954009F02C
:100DB000B4C06BE272E088EE95E00E94FB158BA157
:100DC0009CA19A8389838DA19EA19C838B831E8283
:100DD0001D8218861F821A861986BE01695D7F4FA3
:100DE000CE0105960E94EC178DA59EA59C878B874A
:100DF0006DE270E0CE0101960E94C41F80FF09C021
:100E000069EE71E0D30112968D919C9113970E9427
:100E1000FB156DE270E0CE0101960E94C41F81FFB8
:100E200007C065EC71E0F301828193810E94FB159C
:100E30006DE270E0CE0101960E94C41F82FF09C0DE
:100E400060EA71E0D30112968D919C9113970E94F4
:100E5000FB156DE270E0CE0101960E94C41F83FF76
:100E600007C06BE771E0F301828193810E94FB155B
:100E70006DE270E0CE0101960E94C41F84FF09C09C
:100E800065E571E0D30112968D919C9113970E94B4
:100E9000FB156DE270E0CE0101960E94C41F85FF34
:100EA00007C068E371E0F301828193810E94FB1522
:100EB0006DE270E0CE0101960E94C41F86FF09C05A
:100EC0006CE171E0D30112968D919C9113970E9471
:100ED000FB156DE270E0CE0101960E94C41F87FFF2
:100EE00007C060E071E0F301828193810E94FB15ED
:100EF0006DE270E0CE0101960E94C41F811109C00D
:100F000066EF70E0D30112968D919C9113970E9429
:100F1000FB15CE0105960E94161867E172E0F301F9
:100F2000828193810E94FB15CE0183960E94F81F57
:100F3000BC01D30112968D919C9113970E944B2076
:100F400064E172E0F301828193810E941F16CE0159
:100F500087960E941618A3C1F89481E08093E00060
:100F600080E28093D8001092C90065E070E080E0D4
:100F700090E00E94C31C1DBA109268001CBC10BEF9
:100F80001FBA10927A0010926E0010926F001092A9
:100F900071000C94003883C18E010D5D1F4F88E0F5
:100FA000F80111928A95E9F742E050E0B801C301D7
:100FB0000E948520029754F0BBA0EB2CF12CB1E0ED
:100FC000EB1AF108E3E0EE16F10470F0D30112968B
:100FD0008D919C911397DC01ED91FC910190F08132
:100FE000E02D60E809955BC18CE08E9DB0018F9D7E
:100FF000700D1124FB01E65CF74F6F018081918138
:101000009A838983828193819C838B831E821D8234
:1010100018861F821A861986625C774FCE01059664
:101020000E94EC17D6011A968D919C911B979C8774
:101030008B878CA1F3014781882351F021E030E0B8
:101040000E2C01C0220F0A94EAF7242B27830AC032
:1010500081E090E00E2C01C0880F0A94EAF7809599
:101060008423878360E070E0CE0101960E942E20E9
:101070008CA1813019F0823011F14FC044E050E072
:10108000B801C3010E948520181619060CF045C04E
:101090002DA130E0322F22278EA1280F311D6BA108
:1010A00070E0762F66278CA1680F711D2115310520
:1010B00009F49B010FEF1FEF4FEF5FEF2AC048E0ED
:1010C00050E0B801C3010E9485206BA170E0762F2B
:1010D00066272CA1620F711D4DA150E0542F4427AB
:1010E0002EA1420F511D853091058CF02FA130E0CB
:1010F000322F2227E8A52E0F311D07974CF009A5A6
:1011000010E0102F00278AA5080F111D02C09B01B7
:101110008A01CE0101960E94D1208FEF8B0D833082
:1011200050F4F701EE0FFF1FEE0FFF1FE851FC4FC9
:101130006581768102C065E070E0CE0101960E9473
:101140002E20F30182819381DC01ED91FC910190CD
:10115000F081E02D6FEF099561ED71E0F30182817F
:1011600093810E945811CE010596F3CE45E050E0E0
:10117000BE016F5F7F4F0E9485208981843008F017
:101180008EC090E0FC013396EE0FFF1FE60DF71DB9
:101190002B812083880F991FF301E80FF91F8D81A0
:1011A00087837DC041E050E0BE016F5F7F4F0E94AA
:1011B00085208981823031F0833009F070C0F301DD
:1011C00016826DC081E0D30116968C9361E08DE0AC
:1011D0000E94581C64E670E080E090E00E94C31C0E
:1011E00060E08DE00E94581C64E670E080E090E0D2
:1011F0000E94C31C61E08DE00E94581C50C022E098
:1012000033E080E090E0CDB6DEB640912A0350E0B6
:10121000841795070CF043C02B5F3F4FF9013597BA
:10122000408164133AC025E0289F8001299F100D5A
:1012300011240E5F1C4FD80111964D915C911297AD
:10124000EDB7FEB7E41BF50B0FB6F894FEBF0FBE6B
:10125000EDBF2DB73EB72F5F3F4F7901B901C301F5
:101260000E9485205C0161E070E080E090E00E94D7
:10127000C31CD80113968D919C911497DC01ED91BC
:10128000FC910480F581E02DA501B70109950FB609
:10129000F894DEBE0FBECDBE02C00196B6CFF301FC
:1012A00082819381DC01ED91FC910480F581E02D38
:1012B0000995892B59F0F30182819381DC01ED912D
:1012C000FC910680F781E02D0995E9CFEEA9FFA9F1
:1012D0000FB6F894FEBF0FBEEDBFE7960FB6F894B9
:1012E000DEBF0FBECDBFDF91CF911F910F91FF9059
:1012F000EF90DF90CF90BF90AF909F908F907F90B6
:101300006F905F904F903F902F90089514161506A0
:1013100054F4FB012081213031F4FC01248715862F
:1013200016861786108A0895CF93DF93CDB7DEB760
:1013300020E1FE013596DC0101900D922A95E1F73E
:10134000DF91CF9108950F931F93CF93DF93CDB784
:10135000DEB78C01FB018C899D890197A9F58A85EF
:101360009B8598278927982728853985203743E04A
:10137000340779F030F42036334031F59583848397
:1013800023C0203E43E0340759F0243E334089F027
:101390001BC06AE070E00E9489297783668314C0CD
:1013A0006AE070E00E94892961517140718760870D
:1013B0000BC0898980FF02C086E003C082FF03C0A2
:1013C00084E0848701C0148680E1FE013796D8014D
:1013D00001900D928A95E1F7C801DF91CF911F919D
:1013E0000F9108950895CF93DF93CDB7DEB79C0199
:1013F000C901DF91CF910895CF93DF93EC018E81E6
:10140000882301F188EE95E00E944F1B892B51F053
:1014100088EE95E00E94F01B682F8BE493E00E9419
:10142000FD14F0CF8BE493E00E94E714892B71F157
:101430008BE493E00E94C514682F88EE95E00E942B
:101440002E1BF0CF8BE493E00E94E71418161906C8
:1014500054F48BE493E09B838A830E94C514682F25
:10146000CE010E94C90288EE95E00E944F1B18161B
:10147000190664F488EE95E09B838A830E94F01B32
:10148000682FCE01DF91CF910C94C902DF91CF91EB
:1014900008950895CF93DF93FC01C481D581E8813D
:1014A0004E2F50E022E2E29FF0011124E851FC4F60
:1014B000DC011A96888190E00196841795077CF0EC
:1014C000208D30E0322F2227818D280F311D285F9B
:1014D0003F4F2D933D934F5F5F4FB296EBCFDF9120
:1014E000CF91089540E052E060E070E00C94252830
:1014F00080E092E0E8EEF3E0DF019C011D922150D4
:101500003040E1F740E052E060E070E0CF010E943F
:101510000D288091E90381508E3F10F00C94910AC0
:1015200008952F923F924F925F926F927F928F9287
:101530009F92AF92BF92CF92DF92EF92FF920F9362
:101540001F93CF93DF93CDB7DEB7C250D2400FB613
:10155000F894DEBF0FBECDBF00E010E060E0C80130
:101560000E942F280F5F1F4F011522E01207B1F7CD
:10157000CE010196FC01C80111920197E9F731E013
:1015800039833A834DE750E05D834C8381E090E0FE
:101590009F838E83598748879B878A875D874C877F
:1015A0009F878E8762E06D8B57E0598FE0EEEA8F60
:1015B0003B8F8CE38C8F44E049A3F1E4FAA325E050
:1015C0002BA38CA378E27FA380E1F82EF8A63AA79C
:1015D0008AE08CA78FEF8DA798ED892E8EA6A5E4C3
:1015E000EA2EEFA6B7E4BB2EB8AA14E5D12ED9AAED
:1015F00090E29AAB9BAB9CAB9DAB9EAB6FAB38AF15
:101600005BAFECAF3DAFA4E3AEAF24964FAF2497F2
:101610002596FFAF259726962FAF26972796AFAF33
:1016200027972A967FAF2A972B96FFAE2B977FE0BE
:101630002D967FAF2D977DE02E967FAF2E972F961C
:101640009FAF2F976296FFAF629706E4902E639646
:101650009FAE639764969FAF649765969FAF6597BB
:1016600066969FAF669767969FAF679768969FAF9E
:10167000689769969FAF69976A966FAF6A976B96FE
:101680003FAF6B976E965FAF6E976F96EFAF6F97AA
:1016900002E2A0960FAFA0977AEDA1967FAFA19737
:1016A000A5E8A296AFAFA297A6964FAFA69712E66F
:1016B000A7961FAFA797A8962FAFA897A9967FAF19
:1016C000A99776E0AA967FAFAA97AB96AFAFAB97F4
:1016D000A0E3AC96AFAFAC97B8E07B2EAD967FAEF3
:1016E000AD97B7E1AF96BFAFAF97B4E14B2EE196A0
:1016F0004FAEE197E496FFAFE497E5969FAEE5978E
:10170000B2E5CB2EE696CFAEE697BFE45B2EE7962A
:101710005FAEE797B2E4E896BFAFE897B4E46B2E0C
:10172000E9966FAEE997EA969FAFEA97EB969FAF7F
:10173000EB97EC966FAFEC97C158DF4F5883CF57BC
:10174000D040C058DF4FE883C058D040CF57DF4F5C
:101750000883C158D040B3E0CE57DF4FB883C2589A
:10176000D0400F2EFCEEAF2EF02DCD57DF4FA882CC
:10177000C358D040C957DF4F4883C758D040C857D7
:10178000DF4F1883C858D040C757DF4F2883C95848
:10179000D040C657DF4FB883CA58D040C557DF4F37
:1017A0007883CB58D040C457DF4FA882CC58D04064
:1017B000C357DF4FA883CD58D040C257DF4FF882C0
:1017C000CE58D040C057DF4F3883C059D040CE5696
:1017D000DF4F2883C259D0400F2EFBE4AF2EF02DEF
:1017E000CB56DF4FA882C559D0400F2EFEE43F2EC6
:1017F000F02DCA56DF4F3882C659D040C956DF4F48
:101800005882C759D0400F2EF3E45F2EF02DC856F2
:10181000DF4F5882C859D040C756DF4FA882C959F8
:10182000D040C656DF4F9883CA59D040C556DF4FC7
:101830009883CB59D040C456DF4F9883CC59D040C1
:10184000C356DF4F6883CD59D040CF55DF4F588303
:10185000C15AD040CE55DF4FE883C25AD040CD5553
:10186000DF4F0883C35AD0400F2EF4EF2F2EF02DF8
:10187000CC55DF4F2882C45AD0400F2EF3E23F2EC2
:10188000F02DCB55DF4F3882C55AD040C755DF4FBA
:101890004883C95AD040C655DF4F1883CA5AD04032
:1018A000C555DF4F2883CB5AD040C455DF4F28821F
:1018B000CC5AD040C355DF4F7883CD5AD040C25563
:1018C000DF4F3882CE5AD040C155DF4FA883CF5A60
:1018D000D040C055DF4FF882C05BD0400F2EFDE1F5
:1018E0003F2EF02DCE54DF4F3882C25BD040CC5417
:1018F000DF4F4882C45BD040C954DF4F9882C75B3A
:10190000D0400F2EF0E59F2EF02DC854DF4F988267
:10191000C85BD040C754DF4FC882C95BD040C654B3
:10192000DF4F9883CA5BD040C554DF4FA882CB5BA2
:10193000D040C454DF4F9883CC5BD040C354DF4FBA
:101940009883CD5BD040C254DF4F9883CE5BD040AC
:10195000C154DF4F6883CF5BD040CD53DF4F5883F6
:10196000C35CD040CC53DF4FE883C45CD040CB5342
:10197000DF4F0883C55CD040CA53DF4FB883C65CD5
:10198000D0400F2EF8E1AF2EF02DC953DF4FA882C3
:10199000C75CD040C553DF4F4883CB5CD040C453B5
:1019A000DF4F1883CC5CD040C353DF4F2883CD5C1E
:1019B000D040C253DF4FB883CE5CD040C153DF4F1D
:1019C0007883CF5CD040C053DF4FA882C05DD04049
:1019D000CF52DF4FA883C15DD040CE52DF4FF88297
:1019E000C25DD040CC52DF4F7883C45DD040CA5234
:1019F000DF4F3883C65DD040C752DF4F5882C95D84
:101A0000D040C652DF4FF883CA5DD0403DE4C55296
:101A1000DF4F3883CB5DD040C452DF4F6882CC5D4E
:101A2000D040C352DF4FE882CD5DD040C252DF4F7D
:101A3000B882CE5DD040C152DF4F9883CF5DD04099
:101A4000C052DF4F9883C05ED040CF51DF4F6883D4
:101A5000C15ED040CB51DF4F5883C55ED04037E3E5
:101A6000CA51DF4F3883C65ED040C951DF4F08836B
:101A7000C75ED04039E5C851DF4F3883C85ED040DB
:101A80000F2EFAE6AF2EF02DC751DF4FA882C95EA8
:101A9000D040C351DF4F4883CD5ED040C251DF4FAD
:101AA0001883CE5ED040C151DF4F2883CF5ED04037
:101AB000C051DF4F3883C05FD040CF50DF4F7883B5
:101AC000C15FD040CE50DF4FA882C25FD040CD5022
:101AD000DF4FA883C35FD040CC50DF4FF882C45F94
:101AE000D0400F2EFBE0FF2EF02DCA50DF4FF882C2
:101AF000C65FD0400F2EF4E6FF2EF02DC850DF4F0A
:101B0000F882C85FD040C550DF4F9882CB5FD0408D
:101B10000F2EF7E5FF2EF02DC450DF4FF882CC5F7B
:101B2000D040C350DF4FE882CD5FD0400F2EF9E4A4
:101B3000FF2EF02DC250DF4FF882CE5FD040C15053
:101B4000DF4FB882CF5FD0400F2EF8E4FF2EF02D8C
:101B5000C050DF4FF882C050D140CF5FDE4FD882F7
:101B6000C150D140CE5FDE4F9883C250D140CD5F8F
:101B7000DE4F6883C350D140C95FDE4F5883C750E2
:101B8000D140C85FDE4FE883C850D140C75FDE4F09
:101B90000883C950D140C65FDE4FB883CA50D140D8
:101BA0005AECC55FDE4F5883CB50D140C15FDE4F4A
:101BB0004883CF50D140C05FDE4F1883C051D14021
:101BC000CF5EDE4F2883C151D140CE5EDE4FB88359
:101BD000C251D140CD5EDE4F7883C351D140CC5E3F
:101BE000DE4F5883C451D140CB5EDE4FA883C55130
:101BF000D140CA5EDE4F7882C651D14049E0C85E0E
:101C0000DE4F4883C851D140C65EDE4F2883CA519B
:101C1000D140C55EDE4F8883CB51D140C45EDE4FDC
:101C20008882CC51D140E2E4C35EDE4FE883CD51DF
:101C3000D140C25EDE4FF883CE51D140C15EDE4F4F
:101C4000D882CF51D140C05EDE4FD882C052D14041
:101C5000CF5DDE4FE882C152D140CE5DDE4FC882FB
:101C6000C252D140CD5DDE4F3883C352D140CC5DEE
:101C7000DE4F9883C452D140CB5DDE4F8883C5527E
:101C8000D140CA5DDE4F8883C652D140C95DDE4F68
:101C90008883C752D140C85DDE4F8883C852D14087
:101CA000C75DDE4F8883C952D140C65DDE4F888351
:101CB000CA52D140C55DDE4F8883CB52D140C45D4E
:101CC000DE4F8883CC52D140C35DDE4F8883CD5236
:101CD000D140C25DDE4F8883CE52D140C15DDE4F20
:101CE0008883CF52D140C05DDE4F8883C053D1403E
:101CF000CF5CDE4F8883C153D140CE5CDE4F8883FA
:101D0000C253D140CD5CDE4F8883C353D140CC5CFD
:101D1000DE4F8883C453D140CB5CDE4F8883C553EC
:101D2000D140CA5CDE4F8883C653D140C95CDE4FC8
:101D30008883C753D140C85CDE4F8883C853D140E5
:101D4000C75CDE4F8883C953D140C65CDE4F8883B1
:101D5000CA53D140C55CDE4F8883CB53D140C45CAD
:101D6000DE4F8883CC53D140C35CDE4F8883CD5394
:101D7000D140C25CDE4F8883CE53D140C15CDE4F80
:101D80008883CF53D140C05CDE4F8883C054D1409C
:101D9000CF5BDE4F8883C154D140CE5BDE4F88835A
:101DA000C254D140CD5BDE4F8883C354D140CC5B5D
:101DB000DE4F8883C454D140CE0101960E94720A3E
:101DC0000E94780A65E074E088EE95E00E941F1694
:101DD00006E010E061E08DE00E94581C64EF71E0C5
:101DE00080E090E00E94C31C60E08DE00E94581CDF
:101DF00064EF71E080E090E00E94C31C0150110983
:101E000049F7CE5FDD4F0FB6F894DEBF0FBECDBFF2
:101E1000DF91CF911F910F91FF90EF90DF90CF90C6
:101E2000BF90AF909F908F907F906F905F904F90FA
:101E30003F902F9008950F931F93CF93DF93CDB7CB
:101E4000DEB760970FB6F894DEBF0FBECDBFDB01E3
:101E500014964D915C9115974115510529F4FC019B
:101E600012821182178631C0DB01ED91FC9111972E
:101E700016962D913C91179789010F5F1F4F17966A
:101E80001C930E931697A4E0220F331FAA95E1F737
:101E9000E20FF31F20E1DE01119601900D922A95C9
:101EA000E1F741505109FB0155834483228133817D
:101EB0000217130711F41782168220E1FE013196F2
:101EC000DC0101900D922A95E1F760960FB6F89427
:101ED000DEBF0FBECDBFDF91CF911F910F9108954F
:101EE0008F929F92AF92BF92CF92DF92EF92FF922A
:101EF0000F931F93CF93DF93CDB7DEB760970FB6E5
:101F0000F894DEBF0FBECDBF89829A82AB82BC82BD
:101F1000CD82DE82EF82F88609871A872B873C877D
:101F20004D875E876F87788BFC01448155812281C4
:101F300033814217530751F1A081B181208531854A
:101F4000A9014F5F5F4F5187408744E0220F331F45
:101F50004A95E1F7A20FB31F20E1FE0131960190EF
:101F60000D922A95E1F7FC0140855185228133814C
:101F70004217530711F411861086FC012481358124
:101F80002F5F3F4F3583248381E001C080E060965E
:101F90000FB6F894DEBF0FBECDBFDF91CF911F917A
:101FA0000F91FF90EF90DF90CF90BF90AF909F90F8
:101FB0008F9008956F927F928F929F92AF92BF926F
:101FC000CF92DF92EF92FF920F931F93CF93DF9305
:101FD000CDB7DEB760970FB6F894DEBF0FBECDBFAA
:101FE0005C01162F50E05D874C87FC01828593854C
:101FF0009F878E87188A60E080810E94581C112379
:1020000011F084E901C080E90E94851E8FEF0E94D3
:10201000851EE82EF12C8FEF0E94851E182F8FEF62
:102020000E94851E8FEF0E94851E8FEF0E94851EE5
:102030008F70882ECE0101963C016C018C2D861983
:10204000881548F48FEF0E94851EF6018383FFEF09
:10205000CF1ADF0AF3CF61E0F50180810E94581C9E
:102060008982107E212F30E085E0369527958A956C
:10207000E1F793E0EE0CFF1C9A95E1F72E0D3F1D62
:10208000922E3B832A83AB80BC80CD80DE80EF80A4
:10209000F88409851A852B853C854D855E856F857D
:1020A000788980E398E00E94700F60960FB6F894EC
:1020B000DEBF0FBECDBFDF91CF911F910F91FF907B
:1020C000EF90DF90CF90BF90AF909F908F907F90D8
:1020D0006F9008950F931F93CF93DF938C01D1E0FE
:1020E000C3E0C37099F1DD2389F1C8010E94E01FAC
:1020F000C82F80FF13C0209134083091350880919B
:102100003208909133082817390739F04C2F60E0D6
:10211000C8010E94DA0FD82F01C0D0E0C1FFE1CF83
:10212000DD23F9F22091340830913508809132088E
:10213000909133082817390711F4D0E0D2CF4C2FF3
:1021400061E0C8010E94DA0FD82FCBCFDF91CF9189
:102150001F910F9108952F923F924F925F926F922D
:102160007F928F929F92AF92BF92CF92DF92EF9227
:10217000FF920F931F93CF93DF93CDB7DEB7609796
:102180000FB6F894DEBF0FBECDBF2C010E946C1DB0
:10219000D20116960D911D912D913C911997025ED9
:1021A0001F4F2F4F3F4F061717072807390708F013
:1021B00066C00E946C1DF2016683778380879187D9
:1021C0000480F581E02D6080262C312CF2E26F9E98
:1021D000C00111249C0128513C4F3901D2011496B1
:1021E000ED91FC911597808190E001968215930501
:1021F0000CF445C0F301828D8823D1F184898823B2
:10220000B9F190E09F878E87808D90E0982F882786
:10221000218D820F911D9B838A83D3015A96FE01E3
:10222000359680E090E02D91222329F001962193AC
:1022300086309105C1F78C83F8E0F98321E0288B83
:1022400098E0892E9A80AB80B82ECD80DE80EF801A
:10225000F88409851A852B853C854D855E856F85BB
:1022600071E0D20112968D919C9113970E94700F8C
:10227000BFEF2B1A3B0AE2E26E0E711CAFCF6096E5
:102280000FB6F894DEBF0FBECDBFDF91CF911F9187
:102290000F91FF90EF90DF90CF90BF90AF909F9005
:1022A0008F907F906F905F904F903F902F90089508
:1022B0006115710579F0FB0101900020E9F7319774
:1022C000AF01461B570BDC01ED91FC910280F381BD
:1022D000E02D099480E090E008956F927F928F92B4
:1022E0009F92AF92BF92CF92DF92EF92FF920F93A5
:1022F0001F93CF93DF93CDB7DEB760970FB6F894F7
:10230000DEBF0FBECDBF3C010E946C1DF301C08437
:10231000D184E284F384F4E6CF0ED11CE11CF11CDD
:102320006C157D058E059F0508F49EC0F30184851C
:10233000882309F499C085859685A785B089892B5E
:102340008A2B8B2B89F40E946C1DF301658776879D
:102350008787908B64ED71E088EE95E00E945811BC
:1023600088EE95E00E94F715F301C584D684E784D2
:10237000F088F8E8CF0EF3E1DF1EE11CF11C0E94AB
:102380006C1DC616D706E806F90690F160E072E00B
:1023900088EE95E00E94581188EE95E00E94F715AE
:1023A00082E0582F8E871F8680E0982E8A8384E0F3
:1023B0008B8388E0882E94E0A92EBB24BA94C12C8C
:1023C00027E2D22EE12CF12C00E016E020E03C8543
:1023D0004D8560E071E0F301828193810E94700F6E
:1023E0000E946C1DF30160877187828793870AC002
:1023F00068E272E088EE95E00E94581188EE95E060
:102400000E94F715F301C584D684E784F088F0E1D3
:10241000CF0EF7E2DF1EE11CF11C0E946C1D6C1553
:102420007D058E059F0500F1F301148662E572E0DB
:1024300088EE95E00E94581188EE95E060960FB600
:10244000F894DEBF0FBECDBFDF91CF911F910F91EA
:10245000FF90EF90DF90CF90BF90AF909F908F90C4
:102460007F906F900C94F71560960FB6F894DEBFCE
:102470000FBECDBFDF91CF911F910F91FF90EF90D5
:10248000DF90CF90BF90AF909F908F907F906F9094
:1024900008952F923F924F925F926F927F928F9208
:1024A0009F92AF92BF92CF92DF92EF92FF920F93E3
:1024B0001F93CF93DF93CDB7DEB729970FB6F8946C
:1024C000DEBF0FBECDBF5C014B01DB011496ED9169
:1024D000FC9115970081C02ED12CB2E20B9F800198
:1024E000112408511C4FD4011496ED91FC911597BD
:1024F000808190E001968C159D050CF4C7C0F80111
:10250000808D218D811103C0222309F4B9C090E090
:10251000982F8827820F911D08962F8D38A1281794
:10252000390709F0ADC0F80180E090E020A1222336
:1025300079F0AEE1B0E0AC0FBD1FA20FB11D3C9130
:1025400021A132139DC0029632968630910571F713
:10255000D80196962C9196972695269526952250E9
:1025600030E0E1E2F0E0EC0FFD1FE20FF31F8081AD
:1025700097964C9190E0403159F4E2E2F0E0EC0F94
:10258000FD1FE20FF31F2081982F8827820F911DD6
:10259000D80198962C909897312C322C2224999619
:1025A0002C919997220E311C9A96EC909A97F12CC7
:1025B000FE2CEE249B962C919B97E20EF11C9C9690
:1025C0006C919C9770E0762F66279D962C91FB016D
:1025D000E20FF11DF987E887E114F10419F4EE2404
:1025E000E394F12CBC0180E090E00E94EE262B01E8
:1025F0003C01B70180E090E00E94EE269B01AC0117
:10260000C301B2010E94E1282B013C01B10180E02D
:1026100090E00E94EE26A30192010E944F272B0119
:102620003C0128853985B90180E090E00E94EE26C2
:102630009B01AC01C301B2010E9475280E945A2976
:10264000D80156962D913C91579726173707C1F020
:1026500057967C936E935697B7EEB983E3E8EA8377
:1026600021E02C0D2B837C836D83FDE0FE832AE02B
:102670002F83BE016F5F7F4F8BE493E00E94581160
:102680003FEFC31AD30A0E5D1F4F2DCF80E1FE012D
:102690007E96D50101900D928A95E1F7C5012996A4
:1026A0000FB6F894DEBF0FBECDBFDF91CF911F9163
:1026B0000F91FF90EF90DF90CF90BF90AF909F90E1
:1026C0008F907F906F905F904F903F902F900895E4
:1026D000CF93DF93141615060CF04DC0FB0120813B
:1026E000213009F048C0EC0161E872E088EE95E025
:1026F0000E94581188EE95E00E94F7156AEA72E090
:1027000088EE95E00E9458118C819D810E9454179B
:1027100068EB72E088EE95E00E9458118E819F81EF
:102720000E94541766EC72E088EE95E00E94581102
:10273000888599850E94541764ED72E088EE95E0D3
:102740000E9458118A859B850E94541762EE72E0A0
:1027500088EE95E00E9458114C8550E060E070E0F2
:1027600020E188EE95E00E94A11588EE95E0DF91CA
:10277000CF910C94F715DF91CF9108954F925F920E
:102780006F927F928F929F92AF92BF92CF92DF9281
:10279000EF92FF920F931F93CF93DF93CDB7DEB7E6
:1027A00060970FB6F894DEBF0FBECDBF7C018B01E2
:1027B000C8A8D9A8DB0117968C9190E0960121500A
:1027C000310902C0959587952A95E2F780FF93C05D
:1027D00080E1FE01B396DE01119601900D928A957B
:1027E000E1F7ABA09CA08DA0BEA4FB0182819381E8
:1027F0008B549340D9F40E946C1DD8011A964D90C9
:102800005D906D907C901D97B2E34B0E511C611C46
:10281000711C461657066806790608F06CC00E94BF
:102820006C1DF8016287738784879587D80112969B
:102830008D919C911397DC01ED91FC910190F081B9
:10284000E02D63E00995F80182819381DC01ED912F
:10285000FC910190F081E02D6C2D0995F8018281A9
:102860009381DC01ED91FC910190F081E02D682DC8
:102870000995F80182819381DC01ED91FC91019031
:10288000F081E02D692D09956E01B4E0CB0ED11CCD
:102890004E01ECE08E0E911CD80112968D919C9108
:1028A0001397F60161916F01DC01ED91FC910190AC
:1028B000F081E02D0995C814D90471F7F8018281DF
:1028C0009381DC01ED91FC910190F081E02D6A2D66
:1028D0000995F80182819381DC01ED91FC910190D1
:1028E000F081E02D6B2D099561ED71E0F801828199
:1028F00093810E94581180E1FE01B396D7010190A7
:102900000D928A95E1F7C70160960FB6F894DEBF85
:102910000FBECDBFDF91CF911F910F91FF90EF9030
:10292000DF90CF90BF90AF909F908F907F906F90EF
:102930005F904F900895CF92DF92EF92FF920F93A6
:102940001F93CF93DF936C017A018B01C0E0D0E03D
:10295000CE15DF0581F0D8016D918D01D601ED9185
:10296000FC910190F081E02DC6010995892B11F0B1
:102970002196EECF7E01C701DF91CF911F910F917C
:10298000FF90EF90DF90CF900895FC01918D828DA4
:10299000981761F0828DDF01A80FB11D5D968C91B3
:1029A000928D9F5F9F73928F90E008958FEF9FEFBE
:1029B0000895FC01918D828D981731F0828DE80F7A
:1029C000F11D858D90E008958FEF9FEF0895FC0134
:1029D000918D228D892F90E0805C9F4F821B910901
:1029E0008F73992708958BE493E00E94E71421E008
:1029F000892B09F420E0822F0895EF92FF920F9324
:102A00001F93CF93DF93EC0181E0888F9B8D8C8D9A
:102A1000981305C0E889F989808185FD24C0F62EC8
:102A20000B8D10E00F5F1F4F0F731127E02E8C8D61
:102A3000E8120CC00FB607FCFACFE889F98980814B
:102A400085FFF5CFCE010E940E1CF1CF8B8DFE01CC
:102A5000E80FF11DE35AFF4FF0820B8FEA89FB89E3
:102A60008081806207C0EE89FF896083E889F989E7
:102A700080818064808381E090E0DF91CF911F911D
:102A80000F91FF90EF900895CF93DF93EC01888D25
:102A90008823C9F0EA89FB89808185FD05C0A88962
:102AA000B9898C9186FD0FC00FB607FCF5CF8081E8
:102AB00085FFF2CFA889B9898C9185FFEDCFCE0132
:102AC0000E940E1CE7CFDF91CF91089540912E0315
:102AD00050912F0320912C0330912D03421753075F
:102AE000B4F49091E8009570E1F39091E80092FDC4
:102AF00019C08093F10080912E0390912F030196CD
:102B00008F739927892B19F48EEF8093E8008091B9
:102B10002E0390912F03019690932F0380932E0301
:102B200081E0089580E00895615030F02091F10037
:102B3000FC0120830196F8CF289884E68093330324
:102B400008958F929F92AF92BF92CF92DF92EF92B1
:102B5000FF920F931F93CF93DF93CDB7DEB7A1976B
:102B60000FB6F894DEBF0FBECDBF6C01142FE52F5A
:102B7000CB01022F19A2223008F40AE07E0121E2E3
:102B8000E20EF11C802E912CA12CB12C612F7E2FF6
:102B9000A50194010E949D29029F1019112481E032
:102BA000E81AF1081A3014F4105D01C0195CF7013D
:102BB0001083122FE32FCA01232B242B252B31F74F
:102BC000B701C6010E945811A1960FB6F894DEBF56
:102BD0000FBECDBFDF91CF911F910F91FF90EF906E
:102BE000DF90CF90BF90AF909F908F90089561ED50
:102BF00071E00C945811EF92FF920F931F93CF93B3
:102C0000DF938C017B01C0E0D0E0F701EC0FFD1FEA
:102C10006491662361F0D801ED91FC910190F081FF
:102C2000E02DC8010995892B11F02196EECFCE0138
:102C3000DF91CF911F910F91FF90EF9008950F9327
:102C40001F93CF93DF93EC010E94FB158C01CE0103
:102C50000E94F715800F911FDF91CF911F910F9167
:102C600008951F920F920FB60F9211242F933F9346
:102C70004F935F936F937F938F939F93AF93BF9384
:102C8000EF93FF938BE493E00E940E1CFF91EF9172
:102C9000BF91AF919F918F917F916F915F914F9174
:102CA0003F912F910F900FBE0F901F9018951F927C
:102CB0000F920FB60F9211242F938F939F93EF9340
:102CC000FF93E0915B03F0915C038081E0916103ED
:102CD000F091620382FD12C09081809164038F5F46
:102CE0008F7320916503821751F0E0916403F0E047
:102CF000E55BFC4F958F8093640301C08081FF9159
:102D0000EF919F918F912F910F900FBE0F901F9079
:102D1000189580913A0381110DC082E080933603AB
:102D200084E080933703109239031092380381E0D6
:102D300080933A0386E393E008950E949F2A0F93BD
:102D40001F93CF93DF93EC0188819981009729F03D
:102D50002A813B812617370788F48B016F5F7F4FED
:102D60000E94D929009761F0998388831B830A8385
:102D70002C813D81232B11F4FC01108281E001C0E4
:102D800080E0DF91CF911F910F910895DF92EF9234
:102D9000FF920F931F93CF93DF93D82EF92EE42E3B
:102DA000062F10E0C8010196880F0E94661583E087
:102DB0000E946615CD2DDF2D0C0F1D1FC017D107EA
:102DC00089F0E7FE03C0FE01849101C088810E9462
:102DD0006615F82E80E00E9466158F2121968111DC
:102DE000EDCF01C081E0DF91CF911F910F91FF9056
:102DF000EF90DF900895DF92EF92FF920F931F9371
:102E0000CF93DF93D82E8A017B01E40EF51EEB01F0
:102E1000CE15DF0571F0D7FE03C0FE01849101C01D
:102E200088810E94661521968111F2CF8FEF9FEF66
:102E300001C0C801DF91CF911F910F91FF90EF90DA
:102E4000DF9008950F931F93CF93DF931F92CDB719
:102E5000DEB782E0898342E450E06BE774E080E80B
:102E60000E94FB160E948916DC0112960D911C919E
:102E700013970115110589F0D801ED91FC9102809D
:102E8000F381E02DBE016F5F7F4FC801099597FD6B
:102E900004C0F80100851185ECCF89810F90DF9186
:102EA000CF911F910F910895CF93DF93BC0188EECE
:102EB00095E00E944B20EC0188EE95E00E94F7150A
:102EC0008C0F9D1FDF91CF91089520913403211124
:102ED00003C08FEF9FEF08955FB7F89422E020932F
:102EE000E9002091F20030E01216130614F421E0FC
:102EF00030E0422FFC0184E6415038F0289880935E
:102F000033039091F1009193F7CF2115310521F012
:102F10008091F200882319F05FBFC90108958BE604
:102F20008093E800F9CFEF92FF920F931F93CF9316
:102F3000DF936115710511F480E01CC04115510546
:102F4000C1F07B01EC018C819D818A01080F191F62
:102F5000B801CE010E949F16882371F32881398120
:102F60008C819D81B701820F931F0E94AD2A1D8322
:102F70000C8381E0DF91CF911F910F91FF90EF9033
:102F80000895CF93DF93EC0188819981009711F028
:102F90000E946026198218821D821C821B821A825E
:102FA000DF91CF910895CF93DF93EC016115710507
:102FB00061F0FB0101900020E9F73197AF01461B5A
:102FC000570B0E949317811103C0CE010E94C117B5
:102FD000CE01DF91CF910895EF92FF920F931F934F
:102FE000CF93DF93EC0186179707C1F0FB010081B7
:102FF00011810115110539F0E480F580B7010E94B7
:103000009F16811104C0CE010E94C11707C0FD8226
:10301000EC82B801888199810E94AD2ACE01DF91AE
:10302000CF911F910F91FF90EF900895FC01808147
:1030300091810C946026EF92FF920F931F93CF9390
:10304000DF93EC01198218821B821A821D821C8276
:103050006115710521F18B01FB0101900020E9F759
:1030600031977F01E61AF70AB7010E949F16811176
:1030700009C0CE01DF91CF911F910F91FF90EF908A
:103080000C94C117FD82EC82B80188819981DF918F
:10309000CF911F910F91FF90EF900C94AD2ADF918B
:1030A000CF911F910F91FF90EF9008958F929F9273
:1030B000AF92BF92CF92DF92EF92FF920F931F9346
:1030C000CF93DF93EC015B016A0179014C0184E04D
:1030D000880E911C63ED71E0C4010E941B18B98237
:1030E000A882DB82CA82FB86EA86B801C401DF912E
:1030F000CF911F910F91FF90EF90DF90CF90BF90F5
:10310000AF909F908F900C94EC171F920F920FB678
:103110000F9211248F939F938091E1009091E10091
:10312000937F9093E1009093E10083FF0FC0109292
:10313000E90091E09093EB001092EC0092E3909301
:10314000ED001092340398E09093F00082FF20C0CD
:1031500093E09093E9009091F200992319F09AE39B
:103160009093E80090913203992339F090913203C3
:10317000915090933203992389F1909133039923CD
:1031800039F090913303915090933303992341F197
:1031900084FF10C08091E2008E7E81608093E20007
:1031A0008091E1008F7E8093E100809131038E7EDB
:1031B000806111C080FF16C08091E2008E7E806128
:1031C0008093E2008091E1008E7E8093E100809107
:1031D00031038E7E81608093310304C05D9ACDCF30
:1031E000289AD6CF9F918F910F900FBE0F901F906E
:1031F00018951F920F920FB60F921124CF92DF9263
:10320000EF92FF920F931F932F933F934F935F93F0
:103210006F937F938F939F93AF93BF93EF93FF939E
:10322000CF93DF93CDB7DEB76C97DEBFCDBF1092E3
:10323000E9008091E80083FFE8C168E0CE0145968F
:103240000E94941582EF8093E8008D8987FF05C066
:103250009091E80090FFFCCF03C09EEF9093E800B0
:10326000982F907609F0C5C09E894F89588D2F8977
:10327000188D91110CC0803829F48091300380930F
:10328000F10002C01092F1001092F100B7C191302C
:1032900051F48111B3C14130510509F0AFC18091A2
:1032A00030038D7F0BC0933061F48111A7C1413091
:1032B000510509F0A3C180913003826080933003EF
:1032C0009DC1953049F48091E80080FFFCCF822FAA
:1032D00080688093E30092C1963009F05DC0EB8C6A
:1032E000FC8C1092E90010922F0310922E031230E2
:1032F00091F510922D0310922C030E94221799E051
:10330000BE016F5F7F4FDB01E92F1D92EA95E9F760
:1033100099831A8391E09E8390EA98879AEF998720
:1033200020912E0330912F03275F3F4F3C832B8347
:103330008D831092E90010922F0310922E03F092C9
:103340002D03E0922C0349E050E080E00E94FB1640
:103350000E94221753C1F0922D03E0922C030E9489
:103360008916DC011296ED90FC901397E114F1049C
:1033700009F4CEC0D701ED91FC910480F581E02DD8
:10338000BE016B5E7F4FC7010995009709F0BBC076
:10339000F701E084F184EACF973009F433C1983023
:1033A00021F481E08093F10029C1993009F026C110
:1033B000837009F027C1EFE2F1E081E031E096E3AC
:1033C0002081211109C08EE78093EA001092EA0063
:1033D0008F898093340312C18093E9003093EB000E
:1033E00021912093EC009093ED008F5F873041F79F
:1033F000EACF8B8D9C8D1092E90010922F031092D2
:103400002E0390932D0380932C03898D81115FC02F
:103410008E899D89913A49F4813209F0F3C047E0E1
:1034200050E064E071E080E0D2C0913209F0EAC07F
:10343000833269F48F89988DA0E0B0E08093000119
:1034400090930101A0930201B0930301D7C0803291
:1034500069F48091E80082FFFCCF67E084E091E0AE
:103460000E9494158BEF8093E80006C0823209F029
:10347000C5C08F8980930B01809104019091050153
:10348000A0910601B0910701803B9440A105B105D0
:1034900009F0A0C080910B0180FD9CC080910008C4
:1034A000909101089093FF0A8093FE0A87E797E7BF
:1034B00090930108809300089BE088E10FB6F89490
:1034C000A895809360000FBE9093600097C00E9403
:1034D0008916DC0112960D911C91139701151105A7
:1034E00009F490C0D801ED91FC910190F081E02D9C
:1034F000BE016B5E7F4FC801099581117FC0F80145
:1035000000851185EBCF181619060CF477C07AC028
:10351000113069F48B8D9C8D089711F4109335034D
:103520008091350381114AC063ED74E04CC01330C3
:1035300009F068C08F89882309F443C0823029F4D8
:1035400040E86DE081EF94E006C0813051F440E83E
:103550006BE085EE94E00E94C616882309F452C001
:103560004DC0833009F04EC00E948916DC011296CE
:10357000ED90FC9013978E010F5F1F4F6801E114CF
:10358000F10479F0D701ED91FC910680F781E02DEF
:10359000B801C7010995080F111DF701E084F184F6
:1035A000EECFD8011C92F60101900020E9F7319787
:1035B000BF016C197D0940E0C601CDCF6DEB74E011
:1035C00002C06FEC74E0FB01449150E080E80E947F
:1035D000FB1614C00FB6F894A8958091600088611E
:1035E00080936000109260000FBEA8958091FE0A43
:1035F0009091FF0A90930108809300088EEF8093CA
:10360000E80003C081E28093EB006C960FB6F8945B
:10361000DEBF0FBECDBFDF91CF91FF91EF91BF9184
:10362000AF919F918F917F916F915F914F913F915A
:103630002F911F910F91FF90EF90DF90CF900F90FF
:103640000FBE0F901F90189580E090E0892B29F015
:103650000E94F31481110C9400000895CF93DF931E
:103660001F92CDB7DEB76983DC01ED91FC9102803A
:10367000F381E02D41E050E0BE016F5F7F4F09957F
:103680000F90DF91CF91089583E08093E9008091BE
:10369000F200882319F08AE38093E8000895FC0182
:1036A0008485958597FD0BC09FB7F89482E0809341
:1036B000E9008091F2009FBF90E0019608959FB7C6
:1036C000F89482E08093E9008091F2009FBF90E03F
:1036D000089590E0FC013197EF30F105B0F5E45921
:1036E000FF4F0C94BF29809180008F7703C0809199
:1036F00080008F7D80938000089580918000877F77
:10370000F9CF84B58F7702C084B58F7D84BD0895CD
:10371000809190008F7707C0809190008F7D03C0CB
:1037200080919000877F8093900008958091C000E1
:103730008F7703C08091C0008F7D8093C000089573
:103740008091C200877F8093C20008953FB7F894AC
:103750008091470390914803A0914903B0914A0397
:1037600026B5A89B05C02F3F19F00196A11DB11DDC
:103770003FBFBA2FA92F982F8827820F911DA11D17
:10378000B11DBC01CD0142E0660F771F881F991F54
:103790004A95D1F7089508950F931F93CF93DF9320
:1037A0001F92CDB7DEB78C01FC018485958597FF0C
:1037B0000EC0CE0101960E946517019719F4898108
:1037C00090E002C08FEF9FEFF80195878487F801A2
:1037D000848595850F90DF91CF911F910F9108956A
:1037E000CF93DF931F92CDB7DEB7FC01848595851B
:1037F00097FD05C02FEF3FEF358724870BC0CE0123
:1038000001960E946517019719F4898190E002C022
:103810008FEF9FEF0F90DF91CF910895FC01848D82
:10382000DF01A80FB11DA35ABF4F2C91848D90E0EA
:1038300001968F739927848FA689B7892C93A089C5
:10384000B1898C9180648C93938D848D981306C07C
:103850000288F389E02D80818F7D80830895CF9346
:10386000DF93282F30E0F901E55EFA4F8491F901EA
:10387000E15CFB4FD491F901E35AFB4FC491CC2397
:1038800091F081110E94691BEC2FF0E0EE0FFF1FF9
:10389000E35FFA4FA591B491EC91ED2381E090E0C4
:1038A00021F480E002C080E090E0DF91CF910895A4
:1038B0001F93CF93DF93282F30E0F901E55EFA4F95
:1038C0008491F901E15CFB4FD491F901E35AFB4F7C
:1038D000C491CC23C1F0162F81110E94691BEC2FDB
:1038E000F0E0EE0FFF1FE150FB4FA591B4919FB7A1
:1038F000F894111104C08C91D095D82302C0EC919A
:10390000DE2BDC939FBFDF91CF911F910895CF9362
:10391000DF9390E0FC01E15CFB4F2491FC01E35A52
:10392000FB4F8491882361F190E0880F991FFC017F
:10393000EF5CFB4FC591D491FC01E150FB4FA59189
:10394000B491611109C09FB7F894888120958223B2
:103950008883EC912E230BC0623061F49FB7F894FA
:103960008881322F309583238883EC912E2B2C93E2
:103970009FBF06C08FB7F894E8812E2B28838FBF96
:10398000DF91CF910895CF92DF92EF92FF92CF9384
:10399000DF936B017C010E94A61BEB01C114D104D3
:1039A000E104F10479F00E94A61B6C1B7D0B683EBC
:1039B0007340A0F381E0C81AD108E108F108C851AA
:1039C000DC4FECCFDF91CF91FF90EF90DF90CF9065
:1039D00008958F929F92AF92BF92CF92DF92EF9213
:1039E000FF920F931F93CF93DF936C015B018A01CA
:1039F00080910B01882309F455C0809134038823FA
:103A000009F450C0EA018AEFF82E93E0E92E20E491
:103A1000822E3AE3932E209709F43DC09FB7F89485
:103A2000E092E9008091E80085FF06C08091F200F5
:103A3000282D281B822F01C080E09FBF81110AC062
:103A4000FA94FF2079F161E070E080E090E00E945C
:103A5000C31CE1CF282F30E0C217D3070CF48C2F02
:103A60009FB7F894E092E9002091E80025FF11C08B
:103A7000282F30E0C21BD30BF501815020F041917B
:103A80004093F100FACFA20EB31E8091E80085FFAB
:103A900013C09FBFC0CF5D9884E680933203101699
:103AA000110644F081E090E0F6019383828380E088
:103AB00090E005C0C80103C09092E800EACFDF9112
:103AC000CF911F910F91FF90EF90DF90CF90BF901B
:103AD000AF909F908F9008952FB7F8946091430313
:103AE0007091440380914503909146032FBF089540
:103AF0001F920F920FB60F9211242F933F938F9323
:103B00009F93AF93BF938091430390914403A091FF
:103B10004503B09146033091420323E0230F2D3734
:103B200020F40196A11DB11D05C026E8230F0296C1
:103B3000A11DB11D2093420380934303909344033E
:103B4000A0934503B09346038091470390914803A7
:103B5000A0914903B0914A030196A11DB11D809324
:103B6000470390934803A0934903B0934A03BF913E
:103B7000AF919F918F913F912F910F900FBE0F901A
:103B80001F9018951F920F920FB60F9211242F932A
:103B90003F934F935F936F937F938F939F93AF93D5
:103BA000BF93EF93FF93E0911401F09115010995F4
:103BB000FF91EF91BF91AF919F918F917F916F9105
:103BC0005F914F913F912F910F900FBE0F901F90DB
:103BD00018951F920F920FB60F9211242F933F93B7
:103BE0004F935F936F937F938F939F93AF93BF9305
:103BF000EF93FF93E0911201F09113010995FF916A
:103C0000EF91BF91AF919F918F917F916F915F9154
:103C10004F913F912F910F900FBE0F901F901895CD
:103C20001F920F920FB60F9211242F933F934F9331
:103C30005F936F937F938F939F93AF93BF93EF9314
:103C4000FF93E0911001F09111010995FF91EF911F
:103C5000BF91AF919F918F917F916F915F914F91A4
:103C60003F912F910F900FBE0F901F9018951F92AC
:103C70000F920FB60F9211242F933F934F935F93A0
:103C80006F937F938F939F93AF93BF93EF93FF9324
:103C9000E0910E01F0910F010995FF91EF91BF9115
:103CA000AF919F918F917F916F915F914F913F91D4
:103CB0002F910F900FBE0F901F9018951F920F928B
:103CC0000FB60F9211242F933F934F935F936F93EF
:103CD0007F938F939F93AF93BF93EF93FF93E09165
:103CE0000C01F0910D010995FF91EF91BF91AF91FA
:103CF0009F918F917F916F915F914F913F912F9104
:103D00000F900FBE0F901F9018958EBD00000DB440
:103D100007FEFDCF8EB50895FF920F931F93CF93AB
:103D2000DF93EC01F62E8A0160E088810E94581C26
:103D300061E070E080E090E00E94C31C82E00E949D
:103D4000851E8F2D0E94851EC80123E095958795BD
:103D50002A95E1F70E94851E802F8295880F807E2C
:103D60000E94851E61E070E080E090E00E94C31C2C
:103D700061E088810E94581C61E070E080E090E082
:103D8000DF91CF911F910F91FF900C94C31C0F9363
:103D90001F93CF93DF93EC01062F142F60E08881EF
:103DA0000E94581C61E070E080E090E00E94C31C1B
:103DB00082E00E94851E802F0E94851E812F0E9416
:103DC000851E61E070E080E090E00E94C31C61E02D
:103DD00088810E94581C61E070E080E090E0DF91F3
:103DE000CF911F910F910C94C31C4F925F926F92D1
:103DF0007F928F929F92AF92BF92CF92DF92EF927B
:103E0000FF920F931F93CF93DF938C016B01072ECB
:103E1000000C880B990B0E94F0269B01AC0160E01E
:103E200070E080E89FE30E94E12820E030E04AE76C
:103E300054E40E944F272B013C01C1E0D0E0FC2E4E
:103E4000FA94BE010D2E000C880B990B0E94F026EF
:103E50009B01AC010E94752820E030E040E85DE362
:103E60000E944F279B01AC01C301B2010E94E128CF
:103E70004B015C0120E030E048EC51E40E94E9266F
:103E80001816CCF0C501B4010E945329E62E7727FD
:103E9000072E000C880B990B0E94F0269B01AC01A9
:103EA000C501B4010E94742820E030E0A9010E94FD
:103EB000E926882339F02196C930D10509F0BFCF12
:103EC00048E0F42E6E2D70E080E090E00E94F02635
:103ED0002DEC3CEC4CE45FE30E944F270E945A29F2
:103EE000862F90E0EC012197D7FDEC01D595C79581
:103EF0006150962F9C1BE61A2FEF2E0D892F90E014
:103F0000BE01680F791F422F50E06417750754F106
:103F1000223040F123E5C216D10461F0019723E07D
:103F2000880F991F2A95E1F7C150C068C82BDEEFB2
:103F3000DE0D04C0D7E0CEEB83E0F82E4F2D6AE211
:103F400070E0C8010E94C71E4C2F69E270E0C801F2
:103F50000E94C71E4D2F68E270E0C8010E94C71E74
:103F600081E001C080E0DF91CF911F910F91FF9020
:103F7000EF90DF90CF90BF90AF909F908F907F9009
:103F80006F905F904F9008951F93CF93DF93EC0154
:103F9000162F60E088810E94581C83E00E94851ED5
:103FA000812F0E94851E8FEF0E94851E182F61E0D1
:103FB00088810E94581C812FDF91CF911F91089515
:103FC0001F93CF93DF93EC0160E088810E94581C1F
:103FD00080EA0E94851E8FEF0E94851E182F61E0E7
:103FE00088810E94581C812FDF91CF911F910895E5
:103FF0000E94E01F82FF07C084FF08C086FF09C03F
:104000008FEF9FEF089580E090E0089581E090E0C9
:10401000089582E090E00895FF920F931F93CF934D
:10402000DF93EC01F62E142F022F60E088810E94AE
:10403000581C85E00E94851E8F2D0E94851E802FB2
:104040000E94851E812F0E94851E61E08881DF917C
:10405000CF911F910F91FF900C94581C6230710505
:1040600099F040F46115710569F06130710579F4DA
:1040700040E00DC06330710549F06430710539F4DA
:1040800040E405C040E803C040E201C040E620EE45
:104090006FE00C940C20CF92DF92EF92FF920F937F
:1040A0001F93CF93DF936B01770FEE08FF08F7FEA6
:1040B0001FC0EC01E881F9810190F081E02D6DE2F3
:1040C00009958C0144275527BA014C195D096E09E1
:1040D0007F092AE0CE010E94A115800F911FDF9178
:1040E000CF911F910F91FF90EF90DF90CF900895A7
:1040F0002AE0B701A601DF91CF911F910F91FF90A8
:10410000EF90DF90CF900C94A115AF92BF92CF9219
:10411000DF92EF92FF920F931F93CF93DF936C0187
:104120005A017B0104E610E0C0E0D0E0CA15DB05CF
:1041300064F5D60112968D919C911397DC01ED9157
:10414000FC910480F581E02D0995892B61F401151E
:104150001105D9F061E070E080E090E00E94C31C9E
:1041600001501109E6CF0115110579F0F6018281A0
:104170009381DC01ED91FC910680F781E02D09959A
:10418000F70181937F012196D1CFCE01DF91CF91AD
:104190001F910F91FF90EF90DF90CF90BF90AF9065
:1041A0000895CF92DF92EF92FF920F931F93CF93D8
:1041B000DF93EC016B01790160E270E00E948C1EDC
:1041C000A60160E070E0CE010E948C1EA60164E0B2
:1041D00070E0CE010E948C1EA80164E270E0CE0166
:1041E0000E948C1EA70168E070E0CE010E948C1E28
:1041F000A70160E170E0CE010E948C1EA70164E17E
:1042000070E0CE010E948C1EA70168E170E0CE0133
:10421000DF91CF911F910F91FF90EF90DF90CF90A2
:104220000C948C1E86E598E00E9416188AE498E0AB
:104230000E9416188EE398E00C941618CF93DF9323
:10424000CDB7DEB7E0970FB6F894DEBF0FBECDBF97
:10425000789484B5826084BD84B5816084BD85B561
:10426000826085BD85B5816085BD80916E0081606D
:1042700080936E0010928100809181008260809313
:104280008100809181008160809381008091800015
:104290008160809380008091910082608093910082
:1042A0008091910081608093910080919000816065
:1042B000809390008091C10084608093C1008091C0
:1042C000C10082608093C1008091C10081608093B1
:1042D000C1008091C30081608093C3008091C000C1
:1042E00082608093C0008091C20081608093C20090
:1042F00080917A00846080937A0080917A00826055
:1043000080937A0080917A00816080937A00809116
:104310007A00806880937A00109234031092300300
:10432000109231038091D70081608093D70080EA9A
:104330008093D80089B5806189BD89B5826089BDC7
:1043400009B400FEFDCF61E070E080E090E00E94E3
:10435000C31C8091D8008F7C80618093D8008091AD
:10436000E000807F8093E0008091E1008E7E80936A
:10437000E1008DE08093E200559A209A0E94780A2D
:1043800061E070E080E090E00E94C31C2091400654
:104390003091410680912A03883088F495E0899F06
:1043A000F0011124EE5FFC4F99E0908341E050E072
:1043B00052834183348323838F5F80932A03209128
:1043C0003E0630913F0680912A03883088F4A5E0AC
:1043D0008A9FF0011124EE5FFC4F90E1908341E051
:1043E00050E052834183348323838F5F80932A0379
:1043F00080914206909143060E944A0A8FEF9FEFF8
:104400009093F5058093F405E0915B03F0915C03D4
:1044100082E08083E0915B03F0915C031082E09185
:104420005703F09158031082E0915903F0915A0319
:1044300080E1808310926303E0915F03F091600359
:1044400086E08083E0915D03F0915E03808180616E
:104450008083E0915D03F0915E03808188608083BA
:10446000E0915D03F0915E03808180688083E0913C
:104470005D03F0915E0380818F7D80836A9A729ADA
:1044800061E088E00E94871C61E088E00E94581C7F
:1044900061E08DE00E94871C60E083E00E94871C41
:1044A00060E082E00E94871C60E087E00E94871C39
:1044B00061E084E00E94871C61E08CE00E94871C20
:1044C00061E08BE00E94871C61E089E00E94871C0C
:1044D00061E08AE00E94871C61E085E00E94871C01
:1044E00060E084E00E94581C60E08CE00E94581C50
:1044F00060E08BE00E94581C0AE318E0B8EEEB2E57
:10450000B3E0FB2E8EE6C82E84E0D82E90E5A92ECF
:1045100094E0B92E61E08FE00E94871C60E08EE09D
:104520000E94871C61E080E10E94871C61E0F80125
:1045300080810E94871C61E0D80112968C910E94B4
:10454000871C9FB6F89480912B03811126C0F60139
:104550008491F5012491E82FF0E0EE0FFF1FEF5C4E
:10456000FB4FA591B4919C91822F892321F461E0A6
:1045700081E10E94581C61E081E10E94871C8CB59A
:1045800080618CBD8CB580648CBD61E08FE00E9441
:10459000871C61E080E10E94871C80912B038F5F64
:1045A00080932B039FBE8CB5837F8CBD8CB58C7F95
:1045B0008CBD8DB581608DBD8CB58F7D8CBD60E06F
:1045C000D80112968C910E94581C62E370E080E042
:1045D00090E00E94C31C61E0F80182810E94581C97
:1045E00062E370E080E090E00E94C31C23E040E0C2
:1045F0006FE0C8010E940C20D70113966D917C9149
:104600001497C8010E94F51E23E043E06BE2C80145
:104610000E940C2024E044E060E6C8010E940C20C7
:1046200040E050E060E270E0C8010E948C1E40E073
:1046300050E064E270E0C8010E948C1EF7016581C1
:104640007681C8010E942E20045F1F4FF4E0EF0E18
:10465000F11C88E00E35180709F05CCF05E010E08A
:1046600061E08DE00E94581C62E370E080E090E021
:104670000E94C31C60E08DE00E94581C62E370E061
:1046800080E090E00E94C31C0150110949F77EE3CD
:10469000472E76E0572EDE0111963D01ECE03E2ECE
:1046A00008E316E07801F701819191917F01DC0127
:1046B000ED91FC910190F081E02D09954E145F047D
:1046C00091F783E00E942F1C892B21F48AE398E064
:1046D0000E946A1082E00E942F1C892B21F486E43C
:1046E00098E00E946A1087E00E942F1C892B21F419
:1046F00082E598E00E946A10809134089091350814
:10470000892B09F44EC060E378E0CE0141960E9407
:104710001B0FF801619171918F01DB012D913C918B
:10472000EDB7FEB770970FB6F894FEBF0FBEEDBFA2
:10473000ADB7BEB7119680E1FE01719601900D9262
:104740008A95E1F7D9011296ED91FC911397CE016C
:104750008196099580E1FE01B196DE0151960190A6
:104760000D928A95E1F70FB6F894DEBF0FBECDBF6C
:104770004016510671F678A1772399F089889A88B6
:10478000AB88BC88CD88DE88EF88F88C098D1A8DBF
:104790002B8D3C8D4D8D5E8D6F8D86EE96E00E944B
:1047A000700FB12C8091EA069091EB06892B11F0E5
:1047B000BB2019F00E94241B73CF66EE76E0CE0179
:1047C00041960E941B0F88A1882361F30E8D1F8DD7
:1047D0000150110980E1FE017196D30101900D9203
:1047E0008A95E1F7309EC001319E900D1124865CC0
:1047F000974F0E94F81F7C01039708F07DC061E08D
:104800008DE00E94581C81E0E81649F092E0E9161C
:1048100019F060E4A62E05C054E4A52E02C042E4BF
:10482000A42ECA80DB809980309EF001319EF00D6D
:104830001124E65CF74F60E080810E94581C8A2DAD
:104840000E94851EC60133E0969587953A95E1F75B
:104850000E94851E8C2D8295880F807E0E94851E69
:1048600080E00E94851E80E00E94851E892D0E94A6
:10487000851E63018C2D8619891548F4D60113967F
:104880008C910E94851EBFEFCB1ADB0AF3CF309EBE
:10489000F001319EF00D1124E65CF74F61E080815C
:1048A0000E94581CE1E0EE16F10439F0F2E0EF1638
:1048B000F10431F493E8F92E05C022E8F22E02C08B
:1048C00081E8F82E309EC001319E900D11248C019C
:1048D000065C174F60E0D8018C910E94581C8F2D08
:1048E0000E94851E61E0F80180810E94581C60E0F2
:1048F0008DE00E94581C56CF89889A88AB88BC8866
:10490000CD88DE88EF88F88C098D1A8D2B8D3C8D33
:104910004D8D5E8D6F8D78A186EE96E00E94700FB2
:10492000BB24B3943FCFAF92BF92CF92DF92EF926E
:10493000FF920F931F93CF93DF9300D000D000D04E
:10494000CDB7DEB7EBE4F3E01382128288EE93E09A
:10495000A0E0B0E084839583A683B78329E331E0A8
:10496000318320832DEC30E0358724872CEC30E038
:104970003787268728EC30E0318B208B29EC30E01C
:10498000338B228B2AEC30E0358B248B2EEC30E0FD
:10499000378B268B118E128E138E148E28EEA22E3C
:1049A00025E0B22EF5011382128284839583A683BB
:1049B000B78389E491E0918380838FEF9FEF9587A0
:1049C000848760EF72E0CE0101960E941B188E0171
:1049D0000F5F1F4F21E030E044E050E069E070E0FD
:1049E0008AE398E00E945618C8010E94161866EFE4
:1049F00072E0C8010E941B1822E030E04CE050E059
:104A00006AE070E086E498E00E945618C8010E94AF
:104A100016186CEF72E0C8010E941B1823E030E00A
:104A20004BE050E065E070E082E598E00E945618A7
:104A3000C8010E941618E0E3F8E080EF96E0918349
:104A4000808384E190E093838283158214821782AD
:104A500016821186108636EEC32E36E0D32E86E4FB
:104A600096E0F601918380838AE090E093838283CD
:104A70001582148217821682118610868EE090E0CD
:104A80000E94C8257C018DE691E0F7019183808327
:104A9000D582C48217821682B382A28212861386BE
:104AA00014861586F0924506E09244068EE090E06A
:104AB0000E94C8258C0183E691E0F80191838083F0
:104AC0000E946C1DF80166837783808791878AEE48
:104AD00093E095838483D382C282C8010E944A0AEC
:104AE00010934306009342068DE090E00E94C82593
:104AF0008C0189E591E0F80191838083158214820D
:104B00001782168211861086138612861486F38207
:104B1000E282109341060093400681E190E00E94FA
:104B2000C825FC0187E791E091838083D382C2820C
:104B3000F582E48217830683108611861286138617
:104B400081E08487158616861786108AF0933F06C3
:104B5000E0933E06A8E3B6E01196FC92EE9213961F
:104B6000FC93EE93129715961C930E93149726962A
:104B70000FB6F894DEBF0FBECDBFDF91CF911F916E
:104B80000F91FF90EF90DF90CF90BF90AF9008957E
:104B90000F931F93CF93DF938230910510F482E03F
:104BA00090E0E0916008F091610820E030E0A0E042
:104BB000B0E0309719F1408151810281138148178B
:104BC0005907C8F08417950769F4109731F01296C9
:104BD0000C93129713961C9327C0009360081093B0
:104BE000610822C02115310519F04217530718F446
:104BF0009A01BD01EF01DF01F801DBCF211531057D
:104C0000F9F0281B390B2430310580F48A819B810F
:104C10006115710521F0FB019383828304C0909399
:104C2000610880936008FE01329644C0FE01E20FE5
:104C3000F31F8193919322503109398328833AC01D
:104C400020915E0830915F08232B41F420911801D8
:104C50003091190130935F0820935E08209116016E
:104C6000309117012115310541F42DB73EB7409120
:104C70001A0150911B01241B350BE0915E08F09145
:104C80005F08E217F307A0F42E1B3F0B2817390724
:104C900078F0AC014E5F5F4F2417350748F04E0F98
:104CA0005F1F50935F0840935E088193919302C009
:104CB000E0E0F0E0CF01DF91CF911F910F910895D7
:104CC000CF93DF93009709F481C0FC0132971382E0
:104CD0001282A0916008B0916108109781F4208140
:104CE0003181820F931F20915E0830915F08281751
:104CF000390751F5F0935F08E0935E0867C0ED0156
:104D000020E030E0CE17DF0740F44A815B819E014E
:104D100041155105F1F0EA01F5CFD383C2834081FB
:104D20005181840F951FC817D90759F4888199813B
:104D3000840F951F0296918380838A819B81938340
:104D400082832115310529F4F0936108E09360080E
:104D50003DC0E901FB83EA8349915991C40FD51FF6
:104D6000EC17FD0761F480819181840F951F0296F5
:104D7000E90199838883828193819B838A83E0E020
:104D8000F0E012968D919C911397009719F0FD0118
:104D9000DC01F7CF8D919C9111979D012E5F3F4FC4
:104DA000820F931F20915E0830915F082817390702
:104DB00069F4309729F4109261081092600802C0DB
:104DC00013821282B0935F08A0935E08DF91CF91A7
:104DD00008950E942B2708F481E00895E89409C003
:104DE00097FB3EF490958095709561957F4F8F4F1E
:104DF0009F4F9923A9F0F92F96E9BB279395F69534
:104E0000879577956795B795F111F8CFFAF4BB0FB1
:104E100011F460FF1BC06F5F7F4F8F4F9F4F16C015
:104E2000882311F096E911C0772321F09EE8872F9F
:104E3000762F05C0662371F096E8862F70E060E05B
:104E40002AF09A95660F771F881FDAF7880F9695D4
:104E5000879597F90895990F0008550FAA0BE0E878
:104E6000FEEF16161706E807F907C0F0121613062C
:104E7000E407F50798F0621B730B840B950B39F46C
:104E80000A2661F0232B242B252B21F408950A26D2
:104E900009F4A140A6958FEF811D811D08950E9400
:104EA00062270C94D3270E94C52738F00E94CC2794
:104EB00020F0952311F00C94BC270C94C2271124E8
:104EC0000C9407280E94E42770F3959FC1F3950F77
:104ED00050E0551F629FF001729FBB27F00DB11D7E
:104EE000639FAA27F00DB11DAA1F649F6627B00D0E
:104EF000A11D661F829F2227B00DA11D621F739FF7
:104F0000B00DA11D621F839FA00D611D221F749F04
:104F10003327A00D611D231F849F600D211D822F4B
:104F2000762F6A2F11249F5750409AF0F1F0882372
:104F30004AF0EE0FFF1FBB1F661F771F881F91509F
:104F40005040A9F79E3F510580F00C94BC270C946B
:104F500007285F3FE4F3983ED4F3869577956795ED
:104F6000B795F795E7959F5FC1F7FE2B880F911DC9
:104F70009695879597F9089597F99F6780E870E06F
:104F800060E008959FEF80EC089500240A941616BF
:104F9000170618060906089500240A941216130627
:104FA000140605060895092E0394000C11F48823B5
:104FB00052F0BB0F40F4BF2B11F460FF04C06F5FD1
:104FC0007F4F8F4F9F4F089557FD9058440F551FA7
:104FD00059F05F3F71F04795880F97FB991F61F07B
:104FE0009F3F79F087950895121613061406551FF2
:104FF000F2CF4695F1DF08C0161617061806991F5E
:10500000F1CF86957105610508940895E894BB2752
:1050100066277727CB0197F90895DC01CB01FC01C6
:10502000F999FECF06C0F2BDE1BDF89A319600B401
:105030000D9241505040B8F70895F999FECF92BDB6
:1050400081BDF89A992780B50895DC01CB0103C092
:105050002D910E94302841505040D0F70895262FBE
:10506000F999FECF1FBA92BD81BD20BD0FB6F8944D
:10507000FA9AF99A0FBE019608952F923F924F9295
:105080005F926F927F928F929F92AF92BF92CF92D8
:10509000DF92EF92FF920F931F93CF93DF93CDB7E1
:1050A000DEB7CA1BDB0B0FB6F894DEBF0FBECDBF59
:1050B00009942A88398848885F846E847D848C842A
:1050C0009B84AA84B984C884DF80EE80FD800C8133
:1050D0001B81AA81B981CE0FD11D0FB6F894DEBF16
:1050E0000FBECDBFED0108955058BB27AA270E94DF
:1050F0008C280C94D3270E94C52738F00E94CC2717
:1051000020F039F49F3F19F426F40C94C2270EF4D2
:10511000E095E7FB0C94BC27E92F0E94E42758F3A5
:10512000BA17620773078407950720F079F4A6F58C
:105130000C9406280EF4E0950B2EBA2FA02D0B012F
:10514000B90190010C01CA01A0011124FF27591BCC
:1051500099F0593F50F4503E68F11A16F040A22FD2
:10516000232F342F4427585FF3CF46953795279543
:10517000A795F0405395C9F77EF41F16BA0B620B42
:10518000730B840BBAF09150A1F0FF0FBB1F661F89
:10519000771F881FC2F70EC0BA0F621F731F841FCC
:1051A00048F4879577956795B795F7959E3F08F0F2
:1051B000B0CF9395880F08F09927EE0F97958795B4
:1051C00008950E94F5280C94D3270E94CC2758F00C
:1051D0000E94C52740F029F45F3F29F00C94BC27BA
:1051E00051110C9407280C94C2270E94E42768F3FD
:1051F0009923B1F3552391F3951B550BBB27AA2790
:1052000062177307840738F09F5F5F4F220F331FC9
:10521000441FAA1FA9F335D00E2E3AF0E0E832D091
:1052200091505040E695001CCAF72BD0FE2F29D094
:10523000660F771F881FBB1F261737074807AB0766
:10524000B0E809F0BB0B802DBF01FF2793585F4FDB
:105250003AF09E3F510578F00C94BC270C94072837
:105260005F3FE4F3983ED4F3869577956795B795BD
:10527000F7959F5FC9F7880F911D9695879597F9C8
:105280000895E1E0660F771F881FBB1F6217730741
:105290008407BA0720F0621B730B840BBA0BEE1F56
:1052A00088F7E09508950E945A296894B1110C94EA
:1052B000072808950E94EC2788F09F5798F0B92F8F
:1052C0009927B751B0F0E1F0660F771F881F991F3B
:1052D0001AF0BA95C9F714C0B13091F00E940628AF
:1052E000B1E008950C940628672F782F8827B85FBF
:1052F00039F0B93FCCF3869577956795B395D9F793
:105300003EF490958095709561957F4F8F4F9F4F9C
:10531000089597FB072E16F4009407D077FD09D067
:105320000E94C52907FC05D03EF4909581959F4FBA
:105330000895709561957F4F0895A1E21A2EAA1BDA
:10534000BB1BFD010DC0AA1FBB1FEE1FFF1FA21735
:10535000B307E407F50720F0A21BB30BE40BF50B32
:10536000661F771F881F991F1A9469F760957095BB
:10537000809590959B01AC01BD01CF010895EE0F82
:10538000FF1F0590F491E02D0994AA1BBB1B51E16E
:1053900007C0AA1FBB1FA617B70710F0A61BB70BA5
:1053A000881F991F5A95A9F780959095BC01CD014A
:1053B0000895A0E0B0E0EFEDF9E20C944128EC0193
:1053C000009721F4CB010E94C825B4C0FC01E60F70
:1053D000F71F9C0122503109E217F30708F4A8C017
:1053E000D9010D911C91119706171707B0F00530E0
:1053F000110508F49BC0C80104978617970708F4A5
:1054000095C002501109061B170B019311936D9360
:105410007C93CF010E94602689C05B01A01AB10A6B
:105420004C01800E911EA0916008B0916108612C22
:10543000712CE12CF12C109709F446C08D919C91B0
:105440001197A815B905B1F56C0142E0C40ED11C45
:10545000CA14DB0478F14C018A189B08640142E00D
:10546000C40ED11C1296BC9012971396AC91B5E065
:10547000CB16D10440F0B282A38391828082D901FD
:105480006D937C9309C00E5F1F4F800F911FF90130
:1054900091838083EB2DFA2FE114F10431F0D701D1
:1054A0001396FC93EE93129741C0F0936108E0933A
:1054B00060083CC06816790608F43C017D0112962C
:1054C0000D90BC91A02DB7CF80915E0890915F08A0
:1054D00088169906E1F466167706C8F480911601DD
:1054E00090911701009741F48DB79EB740911A0132
:1054F00050911B01841B950BE817F907C8F4F09332
:105500005F08E0935E08F901718360830FC0CB01EF
:105510000E94C8257C01009759F0A801BE010E9495
:10552000A42ACE010E946026C70104C0CE0102C099
:1055300080E090E0CDB7DEB7EEE00C945D2881E02E
:1055400090E0F8940C94B42AFB01DC0102C00190B5
:105550000D9241505040D8F70895FB01DC010190B5
:105560000D920020E1F7089512E0CEE9D2E004C0E8
:10557000FE010E94BF292196CF39D107C9F7F894BF
:02558000FFCF5B
:10558200FFFFFFFF00E1000000000000CB1BCB1B70
:10559200CB1BCB1BCB1B0000620880000A0014004F
:1055A2003200530064007D00FA00F401E80300C1F8
:1055B200808100000000000000FD149B14E714C568
:1055C20014D9144415000000002E1BE91C4F1BF0D7
:1055D2001BCC1B441B00000000490AA309681300EE
:1055E200000000AB104912F20900000000FC09BEE5
:1055F20013F209000000006D1194098609302E375C
:105602002E320043414E42757320547269706C65AC
:10561200204C6F747573007B226576656E74223A36
:105622002276657273696F6E222C20226E616D651F
:10563200223A2200222C20002276657273696F6E54
:10564200223A2200226D656D6F7279223A22003071
:10565200000D0A004C6F747573446173683A3A64C2
:105662006F5374617274757053657175656E63659D
:1056720028292053746172742073776565702E0037
:105682004C6F747573446173683A3A646F53746112
:105692007274757053657175656E6365282920474C
:1056A2006F696E67207570004C6F74757344617317
:1056B200683A3A646F5374617274757053657175A8
:1056C200656E6365282920476F696E6720646F776E
:1056D2006E004C6F747573446173683A3A646F5329
:1056E20074617274757053657175656E636528298E
:1056F2002053776565702066696E69736865642EEC
:105702000048616C746563683A3A7072696E7453EA
:10571200746174757328292048692C2049276D20EB
:1057220061207374617475732E0052504D202020D5
:105732002020202020202000537065656420202036
:10574200202020202000436F6F6C616E742054650E
:105752006D7020004675656C204C6576656C202066
:1057620020004D494C2020202020202020202000F5
:1057720042757320310042757320320042757320E6
:025782003300F2
:107000005FC0000078C0000076C0000074C00000BF
:1070100072C0000070C000006EC000006CC00000B4
:107020006AC0000068C000000BC5000064C000001A
:1070300062C0000060C000005EC000005CC00000D4
:107040005AC000000DC1000056C0000054C000002E
:1070500052C0000050C000004EC000004CC00000F4
:107060004AC0000048C0000046C0000044C0000004
:1070700042C0000040C000003EC000003CC0000014
:107080003AC0000038C0000036C0000034C0000024
:1070900032C0000030C000002EC000002CC0000034
:1070A0002AC0000028C0000026C000008B3EA43E7D
:1070B000483FA43E483FD93EFB3E483F1B3F2D3F43
:1070C00011241FBECFEFDAE0DEBFCDBF11E0A0E09C
:1070D000B1E0EAE1FFE702C005900D92A43AB107E2
:1070E000D9F721E0A4EAB1E001C01D92AB3BB207A1
:1070F000E1F799D310C784CF8091AA01882371F05A
:107100008091C80087FFFCCF8091C80087FF03C033
:107110008091CE0008958FEF9FEF089584E08093D3
:10712000E9008091E80085FD0EC08091E8008B7732
:107130008093E8008091E80082FDF3CF8EB3811147
:10714000F9CF80E008958091F10008959091AA010F
:10715000992339F09091C80095FFFCCF8093CE0021
:10716000089593E09093E9009091E80095FF09C09D
:107170008093F10084E690E09093A9018093A801A8
:1071800008959091E8009E779093E8009091E80030
:1071900090FDEECF9EB39111F9CF0895F89410921F
:1071A0006F0010928100109285001092840081E09F
:1071B00085BF15BE47980C94000008958091AF01DB
:1071C0009091B00101969093B0018093AF01292F67
:1071D00097FF02C02EEF291B220F281710F44798A3
:1071E0000895479A089582E290E09093CD008093AD
:1071F000CC0086E08093CA0082E08093C80088E1DA
:107200008093C900539A5A9A84B7877F84BF88E1D4
:107210000FB6F89480936000109260000FBE90E06B
:1072200080E80FB6F89480936100909361000FBEE0
:1072300081E085BF82E085BF579A209A559AE1E6A2
:10724000F0E090E8908310824798109289009AEFBE
:107250009093880080936F0083E080938100D8C36F
:107260001F920F920FB60F9211242F938F939F931B
:10727000EF93FF9310928500109284008091A801F3
:107280009091A901009729F001979093A90180930B
:10729000A8018091A6019091A701009729F001977C
:1072A0009093A7018093A601E0E0F0E0859194918E
:1072B000019649F08091A4019091A50101969093C7
:1072C000A5018093A401FF91EF919F918F912F9140
:1072D0000F900FBE0F901F90189542E061EC82E076
:1072E0002AD342E161E883E026D342E160E884E00A
:1072F00022C38091B301982F9F77913239F59091F5
:10730000B401903291F0913209F5813AF9F480910B
:10731000E800877F8093E80067E070E083E091E019
:1073200040D48091E8008B770FC0813279F480914E
:10733000E800877F8093E80067E070E083E091E0F9
:1073400089D48091E8008E778093E80008954F9269
